{
	"contracts/kopo/0823/struct2.sol": {
		"StructExam": {
			"abi": [
				{
					"constant": false,
					"inputs": [
						{
							"internalType": "string",
							"name": "_name",
							"type": "string"
						},
						{
							"internalType": "string",
							"name": "_author",
							"type": "string"
						},
						{
							"internalType": "uint256",
							"name": "_id",
							"type": "uint256"
						}
					],
					"name": "addBook",
					"outputs": [
						{
							"internalType": "uint256",
							"name": "",
							"type": "uint256"
						}
					],
					"payable": false,
					"stateMutability": "nonpayable",
					"type": "function"
				},
				{
					"constant": false,
					"inputs": [
						{
							"internalType": "uint256",
							"name": "_idx",
							"type": "uint256"
						}
					],
					"name": "getBook",
					"outputs": [
						{
							"components": [
								{
									"internalType": "string",
									"name": "title",
									"type": "string"
								},
								{
									"internalType": "string",
									"name": "author",
									"type": "string"
								},
								{
									"internalType": "uint256",
									"name": "book_id",
									"type": "uint256"
								}
							],
							"internalType": "struct StructExam.Book",
							"name": "_b",
							"type": "tuple"
						}
					],
					"payable": false,
					"stateMutability": "nonpayable",
					"type": "function"
				},
				{
					"constant": true,
					"inputs": [
						{
							"internalType": "uint256",
							"name": "",
							"type": "uint256"
						}
					],
					"name": "list",
					"outputs": [
						{
							"internalType": "string",
							"name": "title",
							"type": "string"
						},
						{
							"internalType": "string",
							"name": "author",
							"type": "string"
						},
						{
							"internalType": "uint256",
							"name": "book_id",
							"type": "uint256"
						}
					],
					"payable": false,
					"stateMutability": "view",
					"type": "function"
				}
			],
			"devdoc": {
				"methods": {}
			},
			"evm": {
				"assembly": "    /* \"contracts/kopo/0823/struct2.sol\":37:611  contract StructExam {\r... */\n  mstore(0x40, 0x80)\n  callvalue\n    /* \"--CODEGEN--\":8:17   */\n  dup1\n    /* \"--CODEGEN--\":5:7   */\n  iszero\n  tag_1\n  jumpi\n    /* \"--CODEGEN--\":30:31   */\n  0x00\n    /* \"--CODEGEN--\":27:28   */\n  dup1\n    /* \"--CODEGEN--\":20:32   */\n  revert\n    /* \"--CODEGEN--\":5:7   */\ntag_1:\n    /* \"contracts/kopo/0823/struct2.sol\":37:611  contract StructExam {\r... */\n  pop\n  dataSize(sub_0)\n  dup1\n  dataOffset(sub_0)\n  0x00\n  codecopy\n  0x00\n  return\nstop\n\nsub_0: assembly {\n        /* \"contracts/kopo/0823/struct2.sol\":37:611  contract StructExam {\r... */\n      mstore(0x40, 0x80)\n      callvalue\n        /* \"--CODEGEN--\":8:17   */\n      dup1\n        /* \"--CODEGEN--\":5:7   */\n      iszero\n      tag_1\n      jumpi\n        /* \"--CODEGEN--\":30:31   */\n      0x00\n        /* \"--CODEGEN--\":27:28   */\n      dup1\n        /* \"--CODEGEN--\":20:32   */\n      revert\n        /* \"--CODEGEN--\":5:7   */\n    tag_1:\n        /* \"contracts/kopo/0823/struct2.sol\":37:611  contract StructExam {\r... */\n      pop\n      jumpi(tag_2, lt(calldatasize, 0x04))\n      shr(0xe0, calldataload(0x00))\n      dup1\n      0x04266224\n      eq\n      tag_3\n      jumpi\n      dup1\n      0x80c9419e\n      eq\n      tag_4\n      jumpi\n      dup1\n      0xe0ff5b8b\n      eq\n      tag_5\n      jumpi\n    tag_2:\n      0x00\n      dup1\n      revert\n        /* \"contracts/kopo/0823/struct2.sol\":189:504  function addBook(string memory _name,\r... */\n    tag_3:\n      tag_6\n      0x04\n      dup1\n      calldatasize\n      sub\n      tag_7\n      swap2\n      swap1\n      dup2\n      add\n      swap1\n      jump(tag_8)\n    tag_7:\n      tag_9\n      jump\t// in\n    tag_6:\n      mload(0x40)\n      tag_10\n      swap2\n      swap1\n      jump(tag_11)\n    tag_10:\n      mload(0x40)\n      dup1\n      swap2\n      sub\n      swap1\n      return\n        /* \"contracts/kopo/0823/struct2.sol\":162:180  Book[] public list */\n    tag_4:\n      tag_12\n      0x04\n      dup1\n      calldatasize\n      sub\n      tag_13\n      swap2\n      swap1\n      dup2\n      add\n      swap1\n      jump(tag_14)\n    tag_13:\n      tag_15\n      jump\t// in\n    tag_12:\n      mload(0x40)\n      tag_16\n      swap4\n      swap3\n      swap2\n      swap1\n      jump(tag_17)\n    tag_16:\n      mload(0x40)\n      dup1\n      swap2\n      sub\n      swap1\n      return\n        /* \"contracts/kopo/0823/struct2.sol\":512:608  function getBook(uint _idx) public returns (Book memory _b) {\r... */\n    tag_5:\n      tag_18\n      0x04\n      dup1\n      calldatasize\n      sub\n      tag_19\n      swap2\n      swap1\n      dup2\n      add\n      swap1\n      jump(tag_14)\n    tag_19:\n      tag_20\n      jump\t// in\n    tag_18:\n      mload(0x40)\n      tag_21\n      swap2\n      swap1\n      jump(tag_22)\n    tag_21:\n      mload(0x40)\n      dup1\n      swap2\n      sub\n      swap1\n      return\n        /* \"contracts/kopo/0823/struct2.sol\":189:504  function addBook(string memory _name,\r... */\n    tag_9:\n        /* \"contracts/kopo/0823/struct2.sol\":327:331  uint */\n      0x00\n        /* \"contracts/kopo/0823/struct2.sol\":345:352  uint id */\n      dup1\n        /* \"contracts/kopo/0823/struct2.sol\":355:359  list */\n      0x00\n        /* \"contracts/kopo/0823/struct2.sol\":365:469  Book({\r... */\n      mload(0x40)\n      dup1\n      0x60\n      add\n      0x40\n      mstore\n      dup1\n        /* \"contracts/kopo/0823/struct2.sol\":393:398  _name */\n      dup8\n        /* \"contracts/kopo/0823/struct2.sol\":365:469  Book({\r... */\n      dup2\n      mstore\n      0x20\n      add\n        /* \"contracts/kopo/0823/struct2.sol\":422:429  _author */\n      dup7\n        /* \"contracts/kopo/0823/struct2.sol\":365:469  Book({\r... */\n      dup2\n      mstore\n      0x20\n      add\n        /* \"contracts/kopo/0823/struct2.sol\":454:457  _id */\n      dup6\n        /* \"contracts/kopo/0823/struct2.sol\":365:469  Book({\r... */\n      dup2\n      mstore\n      pop\n        /* \"contracts/kopo/0823/struct2.sol\":355:470  list.push(Book({\r... */\n      swap1\n      dup1\n        /* \"--CODEGEN--\":39:40   */\n      0x01\n        /* \"--CODEGEN--\":33:36   */\n      dup2\n        /* \"--CODEGEN--\":27:37   */\n      sload\n        /* \"--CODEGEN--\":23:41   */\n      add\n        /* \"--CODEGEN--\":57:67   */\n      dup1\n        /* \"--CODEGEN--\":52:55   */\n      dup3\n        /* \"--CODEGEN--\":45:68   */\n      sstore\n        /* \"--CODEGEN--\":79:89   */\n      dup1\n        /* \"--CODEGEN--\":72:89   */\n      swap2\n      pop\n        /* \"--CODEGEN--\":0:93   */\n      pop\n        /* \"contracts/kopo/0823/struct2.sol\":355:470  list.push(Book({\r... */\n      swap1\n      0x01\n      dup3\n      sub\n      swap1\n      0x00\n      mstore\n      keccak256(0x00, 0x20)\n      swap1\n      0x03\n      mul\n      add\n      0x00\n      swap1\n      swap2\n      swap3\n      swap1\n      swap2\n      swap1\n      swap2\n      pop\n      0x00\n      dup3\n      add\n      mload\n      dup2\n      0x00\n      add\n      swap1\n      dup1\n      mload\n      swap1\n      0x20\n      add\n      swap1\n      tag_25\n      swap3\n      swap2\n      swap1\n      tag_26\n      jump\t// in\n    tag_25:\n      pop\n      0x20\n      dup3\n      add\n      mload\n      dup2\n      0x01\n      add\n      swap1\n      dup1\n      mload\n      swap1\n      0x20\n      add\n      swap1\n      tag_27\n      swap3\n      swap2\n      swap1\n      tag_26\n      jump\t// in\n    tag_27:\n      pop\n      0x40\n      dup3\n      add\n      mload\n      dup2\n      0x02\n      add\n      sstore\n      pop\n      pop\n        /* \"contracts/kopo/0823/struct2.sol\":345:470  uint id = list.push(Book({\r... */\n      swap1\n      pop\n        /* \"contracts/kopo/0823/struct2.sol\":494:495  1 */\n      0x01\n        /* \"contracts/kopo/0823/struct2.sol\":491:493  id */\n      dup2\n        /* \"contracts/kopo/0823/struct2.sol\":491:495  id-1 */\n      sub\n        /* \"contracts/kopo/0823/struct2.sol\":483:496  return (id-1) */\n      swap2\n      pop\n      pop\n        /* \"contracts/kopo/0823/struct2.sol\":189:504  function addBook(string memory _name,\r... */\n      swap4\n      swap3\n      pop\n      pop\n      pop\n      jump\t// out\n        /* \"contracts/kopo/0823/struct2.sol\":162:180  Book[] public list */\n    tag_15:\n      0x00\n      dup2\n      dup2\n      sload\n      dup2\n      lt\n      tag_28\n      jumpi\n      invalid\n    tag_28:\n      swap1\n      0x00\n      mstore\n      keccak256(0x00, 0x20)\n      swap1\n      0x03\n      mul\n      add\n      0x00\n      swap2\n      pop\n      swap1\n      pop\n      dup1\n      0x00\n      add\n      dup1\n      sload\n      0x01\n      dup2\n      0x01\n      and\n      iszero\n      0x0100\n      mul\n      sub\n      and\n      0x02\n      swap1\n      div\n      dup1\n      0x1f\n      add\n      0x20\n      dup1\n      swap2\n      div\n      mul\n      0x20\n      add\n      mload(0x40)\n      swap1\n      dup2\n      add\n      0x40\n      mstore\n      dup1\n      swap3\n      swap2\n      swap1\n      dup2\n      dup2\n      mstore\n      0x20\n      add\n      dup3\n      dup1\n      sload\n      0x01\n      dup2\n      0x01\n      and\n      iszero\n      0x0100\n      mul\n      sub\n      and\n      0x02\n      swap1\n      div\n      dup1\n      iszero\n      tag_30\n      jumpi\n      dup1\n      0x1f\n      lt\n      tag_31\n      jumpi\n      0x0100\n      dup1\n      dup4\n      sload\n      div\n      mul\n      dup4\n      mstore\n      swap2\n      0x20\n      add\n      swap2\n      jump(tag_30)\n    tag_31:\n      dup3\n      add\n      swap2\n      swap1\n      0x00\n      mstore\n      keccak256(0x00, 0x20)\n      swap1\n    tag_32:\n      dup2\n      sload\n      dup2\n      mstore\n      swap1\n      0x01\n      add\n      swap1\n      0x20\n      add\n      dup1\n      dup4\n      gt\n      tag_32\n      jumpi\n      dup3\n      swap1\n      sub\n      0x1f\n      and\n      dup3\n      add\n      swap2\n    tag_30:\n      pop\n      pop\n      pop\n      pop\n      pop\n      swap1\n      dup1\n      0x01\n      add\n      dup1\n      sload\n      0x01\n      dup2\n      0x01\n      and\n      iszero\n      0x0100\n      mul\n      sub\n      and\n      0x02\n      swap1\n      div\n      dup1\n      0x1f\n      add\n      0x20\n      dup1\n      swap2\n      div\n      mul\n      0x20\n      add\n      mload(0x40)\n      swap1\n      dup2\n      add\n      0x40\n      mstore\n      dup1\n      swap3\n      swap2\n      swap1\n      dup2\n      dup2\n      mstore\n      0x20\n      add\n      dup3\n      dup1\n      sload\n      0x01\n      dup2\n      0x01\n      and\n      iszero\n      0x0100\n      mul\n      sub\n      and\n      0x02\n      swap1\n      div\n      dup1\n      iszero\n      tag_33\n      jumpi\n      dup1\n      0x1f\n      lt\n      tag_34\n      jumpi\n      0x0100\n      dup1\n      dup4\n      sload\n      div\n      mul\n      dup4\n      mstore\n      swap2\n      0x20\n      add\n      swap2\n      jump(tag_33)\n    tag_34:\n      dup3\n      add\n      swap2\n      swap1\n      0x00\n      mstore\n      keccak256(0x00, 0x20)\n      swap1\n    tag_35:\n      dup2\n      sload\n      dup2\n      mstore\n      swap1\n      0x01\n      add\n      swap1\n      0x20\n      add\n      dup1\n      dup4\n      gt\n      tag_35\n      jumpi\n      dup3\n      swap1\n      sub\n      0x1f\n      and\n      dup3\n      add\n      swap2\n    tag_33:\n      pop\n      pop\n      pop\n      pop\n      pop\n      swap1\n      dup1\n      0x02\n      add\n      sload\n      swap1\n      pop\n      dup4\n      jump\t// out\n        /* \"contracts/kopo/0823/struct2.sol\":512:608  function getBook(uint _idx) public returns (Book memory _b) {\r... */\n    tag_20:\n        /* \"contracts/kopo/0823/struct2.sol\":556:570  Book memory _b */\n      tag_36\n      tag_37\n      jump\t// in\n    tag_36:\n        /* \"contracts/kopo/0823/struct2.sol\":590:594  list */\n      0x00\n        /* \"contracts/kopo/0823/struct2.sol\":595:599  _idx */\n      dup3\n        /* \"contracts/kopo/0823/struct2.sol\":590:600  list[_idx] */\n      dup2\n      sload\n      dup2\n      lt\n      tag_39\n      jumpi\n      invalid\n    tag_39:\n      swap1\n      0x00\n      mstore\n      keccak256(0x00, 0x20)\n      swap1\n      0x03\n      mul\n      add\n        /* \"contracts/kopo/0823/struct2.sol\":583:600  return list[_idx] */\n      mload(0x40)\n      dup1\n      0x60\n      add\n      0x40\n      mstore\n      swap1\n      dup2\n      0x00\n      dup3\n      add\n      dup1\n      sload\n      0x01\n      dup2\n      0x01\n      and\n      iszero\n      0x0100\n      mul\n      sub\n      and\n      0x02\n      swap1\n      div\n      dup1\n      0x1f\n      add\n      0x20\n      dup1\n      swap2\n      div\n      mul\n      0x20\n      add\n      mload(0x40)\n      swap1\n      dup2\n      add\n      0x40\n      mstore\n      dup1\n      swap3\n      swap2\n      swap1\n      dup2\n      dup2\n      mstore\n      0x20\n      add\n      dup3\n      dup1\n      sload\n      0x01\n      dup2\n      0x01\n      and\n      iszero\n      0x0100\n      mul\n      sub\n      and\n      0x02\n      swap1\n      div\n      dup1\n      iszero\n      tag_41\n      jumpi\n      dup1\n      0x1f\n      lt\n      tag_42\n      jumpi\n      0x0100\n      dup1\n      dup4\n      sload\n      div\n      mul\n      dup4\n      mstore\n      swap2\n      0x20\n      add\n      swap2\n      jump(tag_41)\n    tag_42:\n      dup3\n      add\n      swap2\n      swap1\n      0x00\n      mstore\n      keccak256(0x00, 0x20)\n      swap1\n    tag_43:\n      dup2\n      sload\n      dup2\n      mstore\n      swap1\n      0x01\n      add\n      swap1\n      0x20\n      add\n      dup1\n      dup4\n      gt\n      tag_43\n      jumpi\n      dup3\n      swap1\n      sub\n      0x1f\n      and\n      dup3\n      add\n      swap2\n    tag_41:\n      pop\n      pop\n      pop\n      pop\n      pop\n      dup2\n      mstore\n      0x20\n      add\n      0x01\n      dup3\n      add\n      dup1\n      sload\n      0x01\n      dup2\n      0x01\n      and\n      iszero\n      0x0100\n      mul\n      sub\n      and\n      0x02\n      swap1\n      div\n      dup1\n      0x1f\n      add\n      0x20\n      dup1\n      swap2\n      div\n      mul\n      0x20\n      add\n      mload(0x40)\n      swap1\n      dup2\n      add\n      0x40\n      mstore\n      dup1\n      swap3\n      swap2\n      swap1\n      dup2\n      dup2\n      mstore\n      0x20\n      add\n      dup3\n      dup1\n      sload\n      0x01\n      dup2\n      0x01\n      and\n      iszero\n      0x0100\n      mul\n      sub\n      and\n      0x02\n      swap1\n      div\n      dup1\n      iszero\n      tag_44\n      jumpi\n      dup1\n      0x1f\n      lt\n      tag_45\n      jumpi\n      0x0100\n      dup1\n      dup4\n      sload\n      div\n      mul\n      dup4\n      mstore\n      swap2\n      0x20\n      add\n      swap2\n      jump(tag_44)\n    tag_45:\n      dup3\n      add\n      swap2\n      swap1\n      0x00\n      mstore\n      keccak256(0x00, 0x20)\n      swap1\n    tag_46:\n      dup2\n      sload\n      dup2\n      mstore\n      swap1\n      0x01\n      add\n      swap1\n      0x20\n      add\n      dup1\n      dup4\n      gt\n      tag_46\n      jumpi\n      dup3\n      swap1\n      sub\n      0x1f\n      and\n      dup3\n      add\n      swap2\n    tag_44:\n      pop\n      pop\n      pop\n      pop\n      pop\n      dup2\n      mstore\n      0x20\n      add\n      0x02\n      dup3\n      add\n      sload\n      dup2\n      mstore\n      pop\n      pop\n      swap1\n      pop\n        /* \"contracts/kopo/0823/struct2.sol\":512:608  function getBook(uint _idx) public returns (Book memory _b) {\r... */\n      swap2\n      swap1\n      pop\n      jump\t// out\n        /* \"contracts/kopo/0823/struct2.sol\":37:611  contract StructExam {\r... */\n    tag_26:\n      dup3\n      dup1\n      sload\n      0x01\n      dup2\n      0x01\n      and\n      iszero\n      0x0100\n      mul\n      sub\n      and\n      0x02\n      swap1\n      div\n      swap1\n      0x00\n      mstore\n      keccak256(0x00, 0x20)\n      swap1\n      0x1f\n      add\n      0x20\n      swap1\n      div\n      dup2\n      add\n      swap3\n      dup3\n      0x1f\n      lt\n      tag_48\n      jumpi\n      dup1\n      mload\n      not(0xff)\n      and\n      dup4\n      dup1\n      add\n      or\n      dup6\n      sstore\n      jump(tag_47)\n    tag_48:\n      dup3\n      dup1\n      add\n      0x01\n      add\n      dup6\n      sstore\n      dup3\n      iszero\n      tag_47\n      jumpi\n      swap2\n      dup3\n      add\n    tag_49:\n      dup3\n      dup2\n      gt\n      iszero\n      tag_50\n      jumpi\n      dup3\n      mload\n      dup3\n      sstore\n      swap2\n      0x20\n      add\n      swap2\n      swap1\n      0x01\n      add\n      swap1\n      jump(tag_49)\n    tag_50:\n    tag_47:\n      pop\n      swap1\n      pop\n      tag_51\n      swap2\n      swap1\n      tag_52\n      jump\t// in\n    tag_51:\n      pop\n      swap1\n      jump\t// out\n    tag_37:\n      mload(0x40)\n      dup1\n      0x60\n      add\n      0x40\n      mstore\n      dup1\n      0x60\n      dup2\n      mstore\n      0x20\n      add\n      0x60\n      dup2\n      mstore\n      0x20\n      add\n      0x00\n      dup2\n      mstore\n      pop\n      swap1\n      jump\t// out\n    tag_52:\n      tag_53\n      swap2\n      swap1\n    tag_54:\n      dup1\n      dup3\n      gt\n      iszero\n      tag_55\n      jumpi\n      0x00\n      dup2\n      0x00\n      swap1\n      sstore\n      pop\n      0x01\n      add\n      jump(tag_54)\n    tag_55:\n      pop\n      swap1\n      jump\n    tag_53:\n      swap1\n      jump\t// out\n        /* \"--CODEGEN--\":6:448   */\n    tag_57:\n      0x00\n        /* \"--CODEGEN--\":108:111   */\n      dup3\n        /* \"--CODEGEN--\":101:105   */\n      0x1f\n        /* \"--CODEGEN--\":93:99   */\n      dup4\n        /* \"--CODEGEN--\":89:106   */\n      add\n        /* \"--CODEGEN--\":85:112   */\n      slt\n        /* \"--CODEGEN--\":75:77   */\n      tag_58\n      jumpi\n        /* \"--CODEGEN--\":126:127   */\n      0x00\n        /* \"--CODEGEN--\":123:124   */\n      dup1\n        /* \"--CODEGEN--\":116:128   */\n      revert\n        /* \"--CODEGEN--\":75:77   */\n    tag_58:\n        /* \"--CODEGEN--\":163:169   */\n      dup2\n        /* \"--CODEGEN--\":150:170   */\n      calldataload\n        /* \"--CODEGEN--\":185:250   */\n      tag_59\n        /* \"--CODEGEN--\":200:249   */\n      tag_60\n        /* \"--CODEGEN--\":242:248   */\n      dup3\n        /* \"--CODEGEN--\":200:249   */\n      jump(tag_61)\n    tag_60:\n        /* \"--CODEGEN--\":185:250   */\n      jump(tag_62)\n    tag_59:\n        /* \"--CODEGEN--\":176:250   */\n      swap2\n      pop\n        /* \"--CODEGEN--\":270:276   */\n      dup1\n        /* \"--CODEGEN--\":263:268   */\n      dup3\n        /* \"--CODEGEN--\":256:277   */\n      mstore\n        /* \"--CODEGEN--\":306:310   */\n      0x20\n        /* \"--CODEGEN--\":298:304   */\n      dup4\n        /* \"--CODEGEN--\":294:311   */\n      add\n        /* \"--CODEGEN--\":339:343   */\n      0x20\n        /* \"--CODEGEN--\":332:337   */\n      dup4\n        /* \"--CODEGEN--\":328:344   */\n      add\n        /* \"--CODEGEN--\":374:377   */\n      dup6\n        /* \"--CODEGEN--\":365:371   */\n      dup4\n        /* \"--CODEGEN--\":360:363   */\n      dup4\n        /* \"--CODEGEN--\":356:372   */\n      add\n        /* \"--CODEGEN--\":353:378   */\n      gt\n        /* \"--CODEGEN--\":350:352   */\n      iszero\n      tag_63\n      jumpi\n        /* \"--CODEGEN--\":391:392   */\n      0x00\n        /* \"--CODEGEN--\":388:389   */\n      dup1\n        /* \"--CODEGEN--\":381:393   */\n      revert\n        /* \"--CODEGEN--\":350:352   */\n    tag_63:\n        /* \"--CODEGEN--\":401:442   */\n      tag_64\n        /* \"--CODEGEN--\":435:441   */\n      dup4\n        /* \"--CODEGEN--\":430:433   */\n      dup3\n        /* \"--CODEGEN--\":425:428   */\n      dup5\n        /* \"--CODEGEN--\":401:442   */\n      jump(tag_65)\n    tag_64:\n        /* \"--CODEGEN--\":68:448   */\n      pop\n      pop\n      pop\n      swap3\n      swap2\n      pop\n      pop\n      jump\n        /* \"--CODEGEN--\":456:586   */\n    tag_66:\n      0x00\n        /* \"--CODEGEN--\":536:542   */\n      dup2\n        /* \"--CODEGEN--\":523:543   */\n      calldataload\n        /* \"--CODEGEN--\":514:543   */\n      swap1\n      pop\n        /* \"--CODEGEN--\":548:581   */\n      tag_67\n        /* \"--CODEGEN--\":575:580   */\n      dup2\n        /* \"--CODEGEN--\":548:581   */\n      jump(tag_68)\n    tag_67:\n        /* \"--CODEGEN--\":508:586   */\n      swap3\n      swap2\n      pop\n      pop\n      jump\n        /* \"--CODEGEN--\":593:1296   */\n    tag_8:\n      0x00\n      dup1\n      0x00\n        /* \"--CODEGEN--\":751:753   */\n      0x60\n        /* \"--CODEGEN--\":739:748   */\n      dup5\n        /* \"--CODEGEN--\":730:737   */\n      dup7\n        /* \"--CODEGEN--\":726:749   */\n      sub\n        /* \"--CODEGEN--\":722:754   */\n      slt\n        /* \"--CODEGEN--\":719:721   */\n      iszero\n      tag_69\n      jumpi\n        /* \"--CODEGEN--\":767:768   */\n      0x00\n        /* \"--CODEGEN--\":764:765   */\n      dup1\n        /* \"--CODEGEN--\":757:769   */\n      revert\n        /* \"--CODEGEN--\":719:721   */\n    tag_69:\n        /* \"--CODEGEN--\":830:831   */\n      0x00\n        /* \"--CODEGEN--\":819:828   */\n      dup5\n        /* \"--CODEGEN--\":815:832   */\n      add\n        /* \"--CODEGEN--\":802:833   */\n      calldataload\n        /* \"--CODEGEN--\":853:871   */\n      0xffffffffffffffff\n        /* \"--CODEGEN--\":845:851   */\n      dup2\n        /* \"--CODEGEN--\":842:872   */\n      gt\n        /* \"--CODEGEN--\":839:841   */\n      iszero\n      tag_70\n      jumpi\n        /* \"--CODEGEN--\":885:886   */\n      0x00\n        /* \"--CODEGEN--\":882:883   */\n      dup1\n        /* \"--CODEGEN--\":875:887   */\n      revert\n        /* \"--CODEGEN--\":839:841   */\n    tag_70:\n        /* \"--CODEGEN--\":905:968   */\n      tag_71\n        /* \"--CODEGEN--\":960:967   */\n      dup7\n        /* \"--CODEGEN--\":951:957   */\n      dup3\n        /* \"--CODEGEN--\":940:949   */\n      dup8\n        /* \"--CODEGEN--\":936:958   */\n      add\n        /* \"--CODEGEN--\":905:968   */\n      jump(tag_57)\n    tag_71:\n        /* \"--CODEGEN--\":895:968   */\n      swap4\n      pop\n        /* \"--CODEGEN--\":781:974   */\n      pop\n        /* \"--CODEGEN--\":1033:1035   */\n      0x20\n        /* \"--CODEGEN--\":1022:1031   */\n      dup5\n        /* \"--CODEGEN--\":1018:1036   */\n      add\n        /* \"--CODEGEN--\":1005:1037   */\n      calldataload\n        /* \"--CODEGEN--\":1057:1075   */\n      0xffffffffffffffff\n        /* \"--CODEGEN--\":1049:1055   */\n      dup2\n        /* \"--CODEGEN--\":1046:1076   */\n      gt\n        /* \"--CODEGEN--\":1043:1045   */\n      iszero\n      tag_72\n      jumpi\n        /* \"--CODEGEN--\":1089:1090   */\n      0x00\n        /* \"--CODEGEN--\":1086:1087   */\n      dup1\n        /* \"--CODEGEN--\":1079:1091   */\n      revert\n        /* \"--CODEGEN--\":1043:1045   */\n    tag_72:\n        /* \"--CODEGEN--\":1109:1172   */\n      tag_73\n        /* \"--CODEGEN--\":1164:1171   */\n      dup7\n        /* \"--CODEGEN--\":1155:1161   */\n      dup3\n        /* \"--CODEGEN--\":1144:1153   */\n      dup8\n        /* \"--CODEGEN--\":1140:1162   */\n      add\n        /* \"--CODEGEN--\":1109:1172   */\n      jump(tag_57)\n    tag_73:\n        /* \"--CODEGEN--\":1099:1172   */\n      swap3\n      pop\n        /* \"--CODEGEN--\":984:1178   */\n      pop\n        /* \"--CODEGEN--\":1209:1211   */\n      0x40\n        /* \"--CODEGEN--\":1227:1280   */\n      tag_74\n        /* \"--CODEGEN--\":1272:1279   */\n      dup7\n        /* \"--CODEGEN--\":1263:1269   */\n      dup3\n        /* \"--CODEGEN--\":1252:1261   */\n      dup8\n        /* \"--CODEGEN--\":1248:1270   */\n      add\n        /* \"--CODEGEN--\":1227:1280   */\n      jump(tag_66)\n    tag_74:\n        /* \"--CODEGEN--\":1217:1280   */\n      swap2\n      pop\n        /* \"--CODEGEN--\":1188:1286   */\n      pop\n        /* \"--CODEGEN--\":713:1296   */\n      swap3\n      pop\n      swap3\n      pop\n      swap3\n      jump\n        /* \"--CODEGEN--\":1303:1544   */\n    tag_14:\n      0x00\n        /* \"--CODEGEN--\":1407:1409   */\n      0x20\n        /* \"--CODEGEN--\":1395:1404   */\n      dup3\n        /* \"--CODEGEN--\":1386:1393   */\n      dup5\n        /* \"--CODEGEN--\":1382:1405   */\n      sub\n        /* \"--CODEGEN--\":1378:1410   */\n      slt\n        /* \"--CODEGEN--\":1375:1377   */\n      iszero\n      tag_75\n      jumpi\n        /* \"--CODEGEN--\":1423:1424   */\n      0x00\n        /* \"--CODEGEN--\":1420:1421   */\n      dup1\n        /* \"--CODEGEN--\":1413:1425   */\n      revert\n        /* \"--CODEGEN--\":1375:1377   */\n    tag_75:\n        /* \"--CODEGEN--\":1458:1459   */\n      0x00\n        /* \"--CODEGEN--\":1475:1528   */\n      tag_76\n        /* \"--CODEGEN--\":1520:1527   */\n      dup5\n        /* \"--CODEGEN--\":1511:1517   */\n      dup3\n        /* \"--CODEGEN--\":1500:1509   */\n      dup6\n        /* \"--CODEGEN--\":1496:1518   */\n      add\n        /* \"--CODEGEN--\":1475:1528   */\n      jump(tag_66)\n    tag_76:\n        /* \"--CODEGEN--\":1465:1528   */\n      swap2\n      pop\n        /* \"--CODEGEN--\":1437:1534   */\n      pop\n        /* \"--CODEGEN--\":1369:1544   */\n      swap3\n      swap2\n      pop\n      pop\n      jump\n        /* \"--CODEGEN--\":1551:1870   */\n    tag_77:\n      0x00\n        /* \"--CODEGEN--\":1649:1684   */\n      tag_78\n        /* \"--CODEGEN--\":1678:1683   */\n      dup3\n        /* \"--CODEGEN--\":1649:1684   */\n      jump(tag_79)\n    tag_78:\n        /* \"--CODEGEN--\":1696:1757   */\n      tag_80\n        /* \"--CODEGEN--\":1750:1756   */\n      dup2\n        /* \"--CODEGEN--\":1745:1748   */\n      dup6\n        /* \"--CODEGEN--\":1696:1757   */\n      jump(tag_81)\n    tag_80:\n        /* \"--CODEGEN--\":1689:1757   */\n      swap4\n      pop\n        /* \"--CODEGEN--\":1762:1814   */\n      tag_82\n        /* \"--CODEGEN--\":1807:1813   */\n      dup2\n        /* \"--CODEGEN--\":1802:1805   */\n      dup6\n        /* \"--CODEGEN--\":1795:1799   */\n      0x20\n        /* \"--CODEGEN--\":1788:1793   */\n      dup7\n        /* \"--CODEGEN--\":1784:1800   */\n      add\n        /* \"--CODEGEN--\":1762:1814   */\n      jump(tag_83)\n    tag_82:\n        /* \"--CODEGEN--\":1835:1864   */\n      tag_84\n        /* \"--CODEGEN--\":1857:1863   */\n      dup2\n        /* \"--CODEGEN--\":1835:1864   */\n      jump(tag_85)\n    tag_84:\n        /* \"--CODEGEN--\":1830:1833   */\n      dup5\n        /* \"--CODEGEN--\":1826:1865   */\n      add\n        /* \"--CODEGEN--\":1819:1865   */\n      swap2\n      pop\n        /* \"--CODEGEN--\":1629:1870   */\n      pop\n      swap3\n      swap2\n      pop\n      pop\n      jump\n        /* \"--CODEGEN--\":1877:2216   */\n    tag_86:\n      0x00\n        /* \"--CODEGEN--\":1985:2020   */\n      tag_87\n        /* \"--CODEGEN--\":2014:2019   */\n      dup3\n        /* \"--CODEGEN--\":1985:2020   */\n      jump(tag_79)\n    tag_87:\n        /* \"--CODEGEN--\":2032:2103   */\n      tag_88\n        /* \"--CODEGEN--\":2096:2102   */\n      dup2\n        /* \"--CODEGEN--\":2091:2094   */\n      dup6\n        /* \"--CODEGEN--\":2032:2103   */\n      jump(tag_89)\n    tag_88:\n        /* \"--CODEGEN--\":2025:2103   */\n      swap4\n      pop\n        /* \"--CODEGEN--\":2108:2160   */\n      tag_90\n        /* \"--CODEGEN--\":2153:2159   */\n      dup2\n        /* \"--CODEGEN--\":2148:2151   */\n      dup6\n        /* \"--CODEGEN--\":2141:2145   */\n      0x20\n        /* \"--CODEGEN--\":2134:2139   */\n      dup7\n        /* \"--CODEGEN--\":2130:2146   */\n      add\n        /* \"--CODEGEN--\":2108:2160   */\n      jump(tag_83)\n    tag_90:\n        /* \"--CODEGEN--\":2181:2210   */\n      tag_91\n        /* \"--CODEGEN--\":2203:2209   */\n      dup2\n        /* \"--CODEGEN--\":2181:2210   */\n      jump(tag_85)\n    tag_91:\n        /* \"--CODEGEN--\":2176:2179   */\n      dup5\n        /* \"--CODEGEN--\":2172:2211   */\n      add\n        /* \"--CODEGEN--\":2165:2211   */\n      swap2\n      pop\n        /* \"--CODEGEN--\":1965:2216   */\n      pop\n      swap3\n      swap2\n      pop\n      pop\n      jump\n        /* \"--CODEGEN--\":2278:3065   */\n    tag_92:\n      0x00\n        /* \"--CODEGEN--\":2417:2421   */\n      0x60\n        /* \"--CODEGEN--\":2412:2415   */\n      dup4\n        /* \"--CODEGEN--\":2408:2422   */\n      add\n        /* \"--CODEGEN--\":2501:2505   */\n      0x00\n        /* \"--CODEGEN--\":2494:2499   */\n      dup4\n        /* \"--CODEGEN--\":2490:2506   */\n      add\n        /* \"--CODEGEN--\":2484:2507   */\n      mload\n        /* \"--CODEGEN--\":2553:2556   */\n      dup5\n        /* \"--CODEGEN--\":2547:2551   */\n      dup3\n        /* \"--CODEGEN--\":2543:2557   */\n      sub\n        /* \"--CODEGEN--\":2536:2540   */\n      0x00\n        /* \"--CODEGEN--\":2531:2534   */\n      dup7\n        /* \"--CODEGEN--\":2527:2541   */\n      add\n        /* \"--CODEGEN--\":2520:2558   */\n      mstore\n        /* \"--CODEGEN--\":2573:2642   */\n      tag_93\n        /* \"--CODEGEN--\":2637:2641   */\n      dup3\n        /* \"--CODEGEN--\":2623:2635   */\n      dup3\n        /* \"--CODEGEN--\":2573:2642   */\n      jump(tag_77)\n    tag_93:\n        /* \"--CODEGEN--\":2565:2642   */\n      swap2\n      pop\n        /* \"--CODEGEN--\":2437:2654   */\n      pop\n        /* \"--CODEGEN--\":2729:2733   */\n      0x20\n        /* \"--CODEGEN--\":2722:2727   */\n      dup4\n        /* \"--CODEGEN--\":2718:2734   */\n      add\n        /* \"--CODEGEN--\":2712:2735   */\n      mload\n        /* \"--CODEGEN--\":2781:2784   */\n      dup5\n        /* \"--CODEGEN--\":2775:2779   */\n      dup3\n        /* \"--CODEGEN--\":2771:2785   */\n      sub\n        /* \"--CODEGEN--\":2764:2768   */\n      0x20\n        /* \"--CODEGEN--\":2759:2762   */\n      dup7\n        /* \"--CODEGEN--\":2755:2769   */\n      add\n        /* \"--CODEGEN--\":2748:2786   */\n      mstore\n        /* \"--CODEGEN--\":2801:2870   */\n      tag_94\n        /* \"--CODEGEN--\":2865:2869   */\n      dup3\n        /* \"--CODEGEN--\":2851:2863   */\n      dup3\n        /* \"--CODEGEN--\":2801:2870   */\n      jump(tag_77)\n    tag_94:\n        /* \"--CODEGEN--\":2793:2870   */\n      swap2\n      pop\n        /* \"--CODEGEN--\":2664:2882   */\n      pop\n        /* \"--CODEGEN--\":2958:2962   */\n      0x40\n        /* \"--CODEGEN--\":2951:2956   */\n      dup4\n        /* \"--CODEGEN--\":2947:2963   */\n      add\n        /* \"--CODEGEN--\":2941:2964   */\n      mload\n        /* \"--CODEGEN--\":2970:3033   */\n      tag_95\n        /* \"--CODEGEN--\":3027:3031   */\n      0x40\n        /* \"--CODEGEN--\":3022:3025   */\n      dup7\n        /* \"--CODEGEN--\":3018:3032   */\n      add\n        /* \"--CODEGEN--\":3004:3016   */\n      dup3\n        /* \"--CODEGEN--\":2970:3033   */\n      jump(tag_96)\n    tag_95:\n        /* \"--CODEGEN--\":2892:3039   */\n      pop\n        /* \"--CODEGEN--\":3056:3060   */\n      dup1\n        /* \"--CODEGEN--\":3049:3060   */\n      swap2\n      pop\n        /* \"--CODEGEN--\":2390:3065   */\n      pop\n      swap3\n      swap2\n      pop\n      pop\n      jump\n        /* \"--CODEGEN--\":3072:3175   */\n    tag_96:\n        /* \"--CODEGEN--\":3145:3169   */\n      tag_97\n        /* \"--CODEGEN--\":3163:3168   */\n      dup2\n        /* \"--CODEGEN--\":3145:3169   */\n      jump(tag_98)\n    tag_97:\n        /* \"--CODEGEN--\":3140:3143   */\n      dup3\n        /* \"--CODEGEN--\":3133:3170   */\n      mstore\n        /* \"--CODEGEN--\":3127:3175   */\n      pop\n      pop\n      jump\n        /* \"--CODEGEN--\":3182:3295   */\n    tag_99:\n        /* \"--CODEGEN--\":3265:3289   */\n      tag_100\n        /* \"--CODEGEN--\":3283:3288   */\n      dup2\n        /* \"--CODEGEN--\":3265:3289   */\n      jump(tag_98)\n    tag_100:\n        /* \"--CODEGEN--\":3260:3263   */\n      dup3\n        /* \"--CODEGEN--\":3253:3290   */\n      mstore\n        /* \"--CODEGEN--\":3247:3295   */\n      pop\n      pop\n      jump\n        /* \"--CODEGEN--\":3302:3897   */\n    tag_17:\n      0x00\n        /* \"--CODEGEN--\":3508:3510   */\n      0x60\n        /* \"--CODEGEN--\":3497:3506   */\n      dup3\n        /* \"--CODEGEN--\":3493:3511   */\n      add\n        /* \"--CODEGEN--\":3485:3511   */\n      swap1\n      pop\n        /* \"--CODEGEN--\":3558:3567   */\n      dup2\n        /* \"--CODEGEN--\":3552:3556   */\n      dup2\n        /* \"--CODEGEN--\":3548:3568   */\n      sub\n        /* \"--CODEGEN--\":3544:3545   */\n      0x00\n        /* \"--CODEGEN--\":3533:3542   */\n      dup4\n        /* \"--CODEGEN--\":3529:3546   */\n      add\n        /* \"--CODEGEN--\":3522:3569   */\n      mstore\n        /* \"--CODEGEN--\":3583:3657   */\n      tag_101\n        /* \"--CODEGEN--\":3652:3656   */\n      dup2\n        /* \"--CODEGEN--\":3643:3649   */\n      dup7\n        /* \"--CODEGEN--\":3583:3657   */\n      jump(tag_86)\n    tag_101:\n        /* \"--CODEGEN--\":3575:3657   */\n      swap1\n      pop\n        /* \"--CODEGEN--\":3705:3714   */\n      dup2\n        /* \"--CODEGEN--\":3699:3703   */\n      dup2\n        /* \"--CODEGEN--\":3695:3715   */\n      sub\n        /* \"--CODEGEN--\":3690:3692   */\n      0x20\n        /* \"--CODEGEN--\":3679:3688   */\n      dup4\n        /* \"--CODEGEN--\":3675:3693   */\n      add\n        /* \"--CODEGEN--\":3668:3716   */\n      mstore\n        /* \"--CODEGEN--\":3730:3804   */\n      tag_102\n        /* \"--CODEGEN--\":3799:3803   */\n      dup2\n        /* \"--CODEGEN--\":3790:3796   */\n      dup6\n        /* \"--CODEGEN--\":3730:3804   */\n      jump(tag_86)\n    tag_102:\n        /* \"--CODEGEN--\":3722:3804   */\n      swap1\n      pop\n        /* \"--CODEGEN--\":3815:3887   */\n      tag_103\n        /* \"--CODEGEN--\":3883:3885   */\n      0x40\n        /* \"--CODEGEN--\":3872:3881   */\n      dup4\n        /* \"--CODEGEN--\":3868:3886   */\n      add\n        /* \"--CODEGEN--\":3859:3865   */\n      dup5\n        /* \"--CODEGEN--\":3815:3887   */\n      jump(tag_99)\n    tag_103:\n        /* \"--CODEGEN--\":3479:3897   */\n      swap5\n      swap4\n      pop\n      pop\n      pop\n      pop\n      jump\n        /* \"--CODEGEN--\":3904:4241   */\n    tag_22:\n      0x00\n        /* \"--CODEGEN--\":4060:4062   */\n      0x20\n        /* \"--CODEGEN--\":4049:4058   */\n      dup3\n        /* \"--CODEGEN--\":4045:4063   */\n      add\n        /* \"--CODEGEN--\":4037:4063   */\n      swap1\n      pop\n        /* \"--CODEGEN--\":4110:4119   */\n      dup2\n        /* \"--CODEGEN--\":4104:4108   */\n      dup2\n        /* \"--CODEGEN--\":4100:4120   */\n      sub\n        /* \"--CODEGEN--\":4096:4097   */\n      0x00\n        /* \"--CODEGEN--\":4085:4094   */\n      dup4\n        /* \"--CODEGEN--\":4081:4098   */\n      add\n        /* \"--CODEGEN--\":4074:4121   */\n      mstore\n        /* \"--CODEGEN--\":4135:4231   */\n      tag_104\n        /* \"--CODEGEN--\":4226:4230   */\n      dup2\n        /* \"--CODEGEN--\":4217:4223   */\n      dup5\n        /* \"--CODEGEN--\":4135:4231   */\n      jump(tag_92)\n    tag_104:\n        /* \"--CODEGEN--\":4127:4231   */\n      swap1\n      pop\n        /* \"--CODEGEN--\":4031:4241   */\n      swap3\n      swap2\n      pop\n      pop\n      jump\n        /* \"--CODEGEN--\":4248:4461   */\n    tag_11:\n      0x00\n        /* \"--CODEGEN--\":4366:4368   */\n      0x20\n        /* \"--CODEGEN--\":4355:4364   */\n      dup3\n        /* \"--CODEGEN--\":4351:4369   */\n      add\n        /* \"--CODEGEN--\":4343:4369   */\n      swap1\n      pop\n        /* \"--CODEGEN--\":4380:4451   */\n      tag_105\n        /* \"--CODEGEN--\":4448:4449   */\n      0x00\n        /* \"--CODEGEN--\":4437:4446   */\n      dup4\n        /* \"--CODEGEN--\":4433:4450   */\n      add\n        /* \"--CODEGEN--\":4424:4430   */\n      dup5\n        /* \"--CODEGEN--\":4380:4451   */\n      jump(tag_99)\n    tag_105:\n        /* \"--CODEGEN--\":4337:4461   */\n      swap3\n      swap2\n      pop\n      pop\n      jump\n        /* \"--CODEGEN--\":4468:4724   */\n    tag_62:\n      0x00\n        /* \"--CODEGEN--\":4530:4532   */\n      0x40\n        /* \"--CODEGEN--\":4524:4533   */\n      mload\n        /* \"--CODEGEN--\":4514:4533   */\n      swap1\n      pop\n        /* \"--CODEGEN--\":4568:4572   */\n      dup2\n        /* \"--CODEGEN--\":4560:4566   */\n      dup2\n        /* \"--CODEGEN--\":4556:4573   */\n      add\n        /* \"--CODEGEN--\":4667:4673   */\n      dup2\n        /* \"--CODEGEN--\":4655:4665   */\n      dup2\n        /* \"--CODEGEN--\":4652:4674   */\n      lt\n        /* \"--CODEGEN--\":4631:4649   */\n      0xffffffffffffffff\n        /* \"--CODEGEN--\":4619:4629   */\n      dup3\n        /* \"--CODEGEN--\":4616:4650   */\n      gt\n        /* \"--CODEGEN--\":4613:4675   */\n      or\n        /* \"--CODEGEN--\":4610:4612   */\n      iszero\n      tag_106\n      jumpi\n        /* \"--CODEGEN--\":4688:4689   */\n      0x00\n        /* \"--CODEGEN--\":4685:4686   */\n      dup1\n        /* \"--CODEGEN--\":4678:4690   */\n      revert\n        /* \"--CODEGEN--\":4610:4612   */\n    tag_106:\n        /* \"--CODEGEN--\":4708:4718   */\n      dup1\n        /* \"--CODEGEN--\":4704:4706   */\n      0x40\n        /* \"--CODEGEN--\":4697:4719   */\n      mstore\n        /* \"--CODEGEN--\":4508:4724   */\n      pop\n      swap2\n      swap1\n      pop\n      jump\n        /* \"--CODEGEN--\":4731:5053   */\n    tag_61:\n      0x00\n        /* \"--CODEGEN--\":4875:4893   */\n      0xffffffffffffffff\n        /* \"--CODEGEN--\":4867:4873   */\n      dup3\n        /* \"--CODEGEN--\":4864:4894   */\n      gt\n        /* \"--CODEGEN--\":4861:4863   */\n      iszero\n      tag_107\n      jumpi\n        /* \"--CODEGEN--\":4907:4908   */\n      0x00\n        /* \"--CODEGEN--\":4904:4905   */\n      dup1\n        /* \"--CODEGEN--\":4897:4909   */\n      revert\n        /* \"--CODEGEN--\":4861:4863   */\n    tag_107:\n        /* \"--CODEGEN--\":4974:4978   */\n      0x1f\n        /* \"--CODEGEN--\":4970:4979   */\n      not\n        /* \"--CODEGEN--\":4963:4967   */\n      0x1f\n        /* \"--CODEGEN--\":4955:4961   */\n      dup4\n        /* \"--CODEGEN--\":4951:4968   */\n      add\n        /* \"--CODEGEN--\":4947:4980   */\n      and\n        /* \"--CODEGEN--\":4939:4980   */\n      swap1\n      pop\n        /* \"--CODEGEN--\":5038:5042   */\n      0x20\n        /* \"--CODEGEN--\":5032:5036   */\n      dup2\n        /* \"--CODEGEN--\":5028:5043   */\n      add\n        /* \"--CODEGEN--\":5020:5043   */\n      swap1\n      pop\n        /* \"--CODEGEN--\":4798:5053   */\n      swap2\n      swap1\n      pop\n      jump\n        /* \"--CODEGEN--\":5060:5178   */\n    tag_79:\n      0x00\n        /* \"--CODEGEN--\":5150:5155   */\n      dup2\n        /* \"--CODEGEN--\":5144:5156   */\n      mload\n        /* \"--CODEGEN--\":5134:5156   */\n      swap1\n      pop\n        /* \"--CODEGEN--\":5115:5178   */\n      swap2\n      swap1\n      pop\n      jump\n        /* \"--CODEGEN--\":5186:5339   */\n    tag_81:\n      0x00\n        /* \"--CODEGEN--\":5291:5297   */\n      dup3\n        /* \"--CODEGEN--\":5286:5289   */\n      dup3\n        /* \"--CODEGEN--\":5279:5298   */\n      mstore\n        /* \"--CODEGEN--\":5328:5332   */\n      0x20\n        /* \"--CODEGEN--\":5323:5326   */\n      dup3\n        /* \"--CODEGEN--\":5319:5333   */\n      add\n        /* \"--CODEGEN--\":5304:5333   */\n      swap1\n      pop\n        /* \"--CODEGEN--\":5272:5339   */\n      swap3\n      swap2\n      pop\n      pop\n      jump\n        /* \"--CODEGEN--\":5348:5511   */\n    tag_89:\n      0x00\n        /* \"--CODEGEN--\":5463:5469   */\n      dup3\n        /* \"--CODEGEN--\":5458:5461   */\n      dup3\n        /* \"--CODEGEN--\":5451:5470   */\n      mstore\n        /* \"--CODEGEN--\":5500:5504   */\n      0x20\n        /* \"--CODEGEN--\":5495:5498   */\n      dup3\n        /* \"--CODEGEN--\":5491:5505   */\n      add\n        /* \"--CODEGEN--\":5476:5505   */\n      swap1\n      pop\n        /* \"--CODEGEN--\":5444:5511   */\n      swap3\n      swap2\n      pop\n      pop\n      jump\n        /* \"--CODEGEN--\":5519:5591   */\n    tag_98:\n      0x00\n        /* \"--CODEGEN--\":5581:5586   */\n      dup2\n        /* \"--CODEGEN--\":5570:5586   */\n      swap1\n      pop\n        /* \"--CODEGEN--\":5564:5591   */\n      swap2\n      swap1\n      pop\n      jump\n        /* \"--CODEGEN--\":5599:5744   */\n    tag_65:\n        /* \"--CODEGEN--\":5680:5686   */\n      dup3\n        /* \"--CODEGEN--\":5675:5678   */\n      dup2\n        /* \"--CODEGEN--\":5670:5673   */\n      dup4\n        /* \"--CODEGEN--\":5657:5687   */\n      calldatacopy\n        /* \"--CODEGEN--\":5736:5737   */\n      0x00\n        /* \"--CODEGEN--\":5727:5733   */\n      dup4\n        /* \"--CODEGEN--\":5722:5725   */\n      dup4\n        /* \"--CODEGEN--\":5718:5734   */\n      add\n        /* \"--CODEGEN--\":5711:5738   */\n      mstore\n        /* \"--CODEGEN--\":5650:5744   */\n      pop\n      pop\n      pop\n      jump\n        /* \"--CODEGEN--\":5753:6021   */\n    tag_83:\n        /* \"--CODEGEN--\":5818:5819   */\n      0x00\n        /* \"--CODEGEN--\":5825:5926   */\n    tag_108:\n        /* \"--CODEGEN--\":5839:5845   */\n      dup4\n        /* \"--CODEGEN--\":5836:5837   */\n      dup2\n        /* \"--CODEGEN--\":5833:5846   */\n      lt\n        /* \"--CODEGEN--\":5825:5926   */\n      iszero\n      tag_110\n      jumpi\n        /* \"--CODEGEN--\":5915:5916   */\n      dup1\n        /* \"--CODEGEN--\":5910:5913   */\n      dup3\n        /* \"--CODEGEN--\":5906:5917   */\n      add\n        /* \"--CODEGEN--\":5900:5918   */\n      mload\n        /* \"--CODEGEN--\":5896:5897   */\n      dup2\n        /* \"--CODEGEN--\":5891:5894   */\n      dup5\n        /* \"--CODEGEN--\":5887:5898   */\n      add\n        /* \"--CODEGEN--\":5880:5919   */\n      mstore\n        /* \"--CODEGEN--\":5861:5863   */\n      0x20\n        /* \"--CODEGEN--\":5858:5859   */\n      dup2\n        /* \"--CODEGEN--\":5854:5864   */\n      add\n        /* \"--CODEGEN--\":5849:5864   */\n      swap1\n      pop\n        /* \"--CODEGEN--\":5825:5926   */\n      jump(tag_108)\n    tag_110:\n        /* \"--CODEGEN--\":5941:5947   */\n      dup4\n        /* \"--CODEGEN--\":5938:5939   */\n      dup2\n        /* \"--CODEGEN--\":5935:5948   */\n      gt\n        /* \"--CODEGEN--\":5932:5934   */\n      iszero\n      tag_111\n      jumpi\n        /* \"--CODEGEN--\":6006:6007   */\n      0x00\n        /* \"--CODEGEN--\":5997:6003   */\n      dup5\n        /* \"--CODEGEN--\":5992:5995   */\n      dup5\n        /* \"--CODEGEN--\":5988:6004   */\n      add\n        /* \"--CODEGEN--\":5981:6008   */\n      mstore\n        /* \"--CODEGEN--\":5932:5934   */\n    tag_111:\n        /* \"--CODEGEN--\":5802:6021   */\n      pop\n      pop\n      pop\n      pop\n      jump\n        /* \"--CODEGEN--\":6029:6126   */\n    tag_85:\n      0x00\n        /* \"--CODEGEN--\":6117:6119   */\n      0x1f\n        /* \"--CODEGEN--\":6113:6120   */\n      not\n        /* \"--CODEGEN--\":6108:6110   */\n      0x1f\n        /* \"--CODEGEN--\":6101:6106   */\n      dup4\n        /* \"--CODEGEN--\":6097:6111   */\n      add\n        /* \"--CODEGEN--\":6093:6121   */\n      and\n        /* \"--CODEGEN--\":6083:6121   */\n      swap1\n      pop\n        /* \"--CODEGEN--\":6077:6126   */\n      swap2\n      swap1\n      pop\n      jump\n        /* \"--CODEGEN--\":6134:6251   */\n    tag_68:\n        /* \"--CODEGEN--\":6203:6227   */\n      tag_112\n        /* \"--CODEGEN--\":6221:6226   */\n      dup2\n        /* \"--CODEGEN--\":6203:6227   */\n      jump(tag_98)\n    tag_112:\n        /* \"--CODEGEN--\":6196:6201   */\n      dup2\n        /* \"--CODEGEN--\":6193:6228   */\n      eq\n        /* \"--CODEGEN--\":6183:6185   */\n      tag_113\n      jumpi\n        /* \"--CODEGEN--\":6242:6243   */\n      0x00\n        /* \"--CODEGEN--\":6239:6240   */\n      dup1\n        /* \"--CODEGEN--\":6232:6244   */\n      revert\n        /* \"--CODEGEN--\":6183:6185   */\n    tag_113:\n        /* \"--CODEGEN--\":6177:6251   */\n      pop\n      jump\n\n    auxdata: 0xa365627a7a72315820b8cb62122dd3eb617484639c552e7c6957b844d798fc6ddc1750fbcbfdc6487a6c6578706572696d656e74616cf564736f6c63430005110040\n}\n",
				"bytecode": {
					"linkReferences": {},
					"object": "608060405234801561001057600080fd5b506108e0806100206000396000f3fe608060405234801561001057600080fd5b50600436106100415760003560e01c8063042662241461004657806380c9419e14610076578063e0ff5b8b146100a8575b600080fd5b610060600480360361005b9190810190610592565b6100d8565b60405161006d9190610788565b60405180910390f35b610090600480360361008b9190810190610611565b610179565b60405161009f93929190610721565b60405180910390f35b6100c260048036036100bd9190810190610611565b6102e0565b6040516100cf9190610766565b60405180910390f35b600080600060405180606001604052808781526020018681526020018581525090806001815401808255809150509060018203906000526020600020906003020160009091929091909150600082015181600001908051906020019061013f929190610463565b50602082015181600101908051906020019061015c929190610463565b506040820151816002015550509050600181039150509392505050565b6000818154811061018657fe5b9060005260206000209060030201600091509050806000018054600181600116156101000203166002900480601f0160208091040260200160405190810160405280929190818152602001828054600181600116156101000203166002900480156102325780601f1061020757610100808354040283529160200191610232565b820191906000526020600020905b81548152906001019060200180831161021557829003601f168201915b505050505090806001018054600181600116156101000203166002900480601f0160208091040260200160405190810160405280929190818152602001828054600181600116156101000203166002900480156102d05780601f106102a5576101008083540402835291602001916102d0565b820191906000526020600020905b8154815290600101906020018083116102b357829003601f168201915b5050505050908060020154905083565b6102e86104e3565b600082815481106102f557fe5b9060005260206000209060030201604051806060016040529081600082018054600181600116156101000203166002900480601f0160208091040260200160405190810160405280929190818152602001828054600181600116156101000203166002900480156103a75780601f1061037c576101008083540402835291602001916103a7565b820191906000526020600020905b81548152906001019060200180831161038a57829003601f168201915b50505050508152602001600182018054600181600116156101000203166002900480601f0160208091040260200160405190810160405280929190818152602001828054600181600116156101000203166002900480156104495780601f1061041e57610100808354040283529160200191610449565b820191906000526020600020905b81548152906001019060200180831161042c57829003601f168201915b505050505081526020016002820154815250509050919050565b828054600181600116156101000203166002900490600052602060002090601f016020900481019282601f106104a457805160ff19168380011785556104d2565b828001600101855582156104d2579182015b828111156104d15782518255916020019190600101906104b6565b5b5090506104df9190610504565b5090565b60405180606001604052806060815260200160608152602001600081525090565b61052691905b8082111561052257600081600090555060010161050a565b5090565b90565b600082601f83011261053a57600080fd5b813561054d610548826107d0565b6107a3565b9150808252602083016020830185838301111561056957600080fd5b610574838284610833565b50505092915050565b60008135905061058c81610886565b92915050565b6000806000606084860312156105a757600080fd5b600084013567ffffffffffffffff8111156105c157600080fd5b6105cd86828701610529565b935050602084013567ffffffffffffffff8111156105ea57600080fd5b6105f686828701610529565b92505060406106078682870161057d565b9150509250925092565b60006020828403121561062357600080fd5b60006106318482850161057d565b91505092915050565b6000610645826107fc565b61064f8185610807565b935061065f818560208601610842565b61066881610875565b840191505092915050565b600061067e826107fc565b6106888185610818565b9350610698818560208601610842565b6106a181610875565b840191505092915050565b600060608301600083015184820360008601526106c9828261063a565b915050602083015184820360208601526106e3828261063a565b91505060408301516106f86040860182610703565b508091505092915050565b61070c81610829565b82525050565b61071b81610829565b82525050565b6000606082019050818103600083015261073b8186610673565b9050818103602083015261074f8185610673565b905061075e6040830184610712565b949350505050565b6000602082019050818103600083015261078081846106ac565b905092915050565b600060208201905061079d6000830184610712565b92915050565b6000604051905081810181811067ffffffffffffffff821117156107c657600080fd5b8060405250919050565b600067ffffffffffffffff8211156107e757600080fd5b601f19601f8301169050602081019050919050565b600081519050919050565b600082825260208201905092915050565b600082825260208201905092915050565b6000819050919050565b82818337600083830152505050565b60005b83811015610860578082015181840152602081019050610845565b8381111561086f576000848401525b50505050565b6000601f19601f8301169050919050565b61088f81610829565b811461089a57600080fd5b5056fea365627a7a72315820b8cb62122dd3eb617484639c552e7c6957b844d798fc6ddc1750fbcbfdc6487a6c6578706572696d656e74616cf564736f6c63430005110040",
					"opcodes": "PUSH1 0x80 PUSH1 0x40 MSTORE CALLVALUE DUP1 ISZERO PUSH2 0x10 JUMPI PUSH1 0x0 DUP1 REVERT JUMPDEST POP PUSH2 0x8E0 DUP1 PUSH2 0x20 PUSH1 0x0 CODECOPY PUSH1 0x0 RETURN INVALID PUSH1 0x80 PUSH1 0x40 MSTORE CALLVALUE DUP1 ISZERO PUSH2 0x10 JUMPI PUSH1 0x0 DUP1 REVERT JUMPDEST POP PUSH1 0x4 CALLDATASIZE LT PUSH2 0x41 JUMPI PUSH1 0x0 CALLDATALOAD PUSH1 0xE0 SHR DUP1 PUSH4 0x4266224 EQ PUSH2 0x46 JUMPI DUP1 PUSH4 0x80C9419E EQ PUSH2 0x76 JUMPI DUP1 PUSH4 0xE0FF5B8B EQ PUSH2 0xA8 JUMPI JUMPDEST PUSH1 0x0 DUP1 REVERT JUMPDEST PUSH2 0x60 PUSH1 0x4 DUP1 CALLDATASIZE SUB PUSH2 0x5B SWAP2 SWAP1 DUP2 ADD SWAP1 PUSH2 0x592 JUMP JUMPDEST PUSH2 0xD8 JUMP JUMPDEST PUSH1 0x40 MLOAD PUSH2 0x6D SWAP2 SWAP1 PUSH2 0x788 JUMP JUMPDEST PUSH1 0x40 MLOAD DUP1 SWAP2 SUB SWAP1 RETURN JUMPDEST PUSH2 0x90 PUSH1 0x4 DUP1 CALLDATASIZE SUB PUSH2 0x8B SWAP2 SWAP1 DUP2 ADD SWAP1 PUSH2 0x611 JUMP JUMPDEST PUSH2 0x179 JUMP JUMPDEST PUSH1 0x40 MLOAD PUSH2 0x9F SWAP4 SWAP3 SWAP2 SWAP1 PUSH2 0x721 JUMP JUMPDEST PUSH1 0x40 MLOAD DUP1 SWAP2 SUB SWAP1 RETURN JUMPDEST PUSH2 0xC2 PUSH1 0x4 DUP1 CALLDATASIZE SUB PUSH2 0xBD SWAP2 SWAP1 DUP2 ADD SWAP1 PUSH2 0x611 JUMP JUMPDEST PUSH2 0x2E0 JUMP JUMPDEST PUSH1 0x40 MLOAD PUSH2 0xCF SWAP2 SWAP1 PUSH2 0x766 JUMP JUMPDEST PUSH1 0x40 MLOAD DUP1 SWAP2 SUB SWAP1 RETURN JUMPDEST PUSH1 0x0 DUP1 PUSH1 0x0 PUSH1 0x40 MLOAD DUP1 PUSH1 0x60 ADD PUSH1 0x40 MSTORE DUP1 DUP8 DUP2 MSTORE PUSH1 0x20 ADD DUP7 DUP2 MSTORE PUSH1 0x20 ADD DUP6 DUP2 MSTORE POP SWAP1 DUP1 PUSH1 0x1 DUP2 SLOAD ADD DUP1 DUP3 SSTORE DUP1 SWAP2 POP POP SWAP1 PUSH1 0x1 DUP3 SUB SWAP1 PUSH1 0x0 MSTORE PUSH1 0x20 PUSH1 0x0 KECCAK256 SWAP1 PUSH1 0x3 MUL ADD PUSH1 0x0 SWAP1 SWAP2 SWAP3 SWAP1 SWAP2 SWAP1 SWAP2 POP PUSH1 0x0 DUP3 ADD MLOAD DUP2 PUSH1 0x0 ADD SWAP1 DUP1 MLOAD SWAP1 PUSH1 0x20 ADD SWAP1 PUSH2 0x13F SWAP3 SWAP2 SWAP1 PUSH2 0x463 JUMP JUMPDEST POP PUSH1 0x20 DUP3 ADD MLOAD DUP2 PUSH1 0x1 ADD SWAP1 DUP1 MLOAD SWAP1 PUSH1 0x20 ADD SWAP1 PUSH2 0x15C SWAP3 SWAP2 SWAP1 PUSH2 0x463 JUMP JUMPDEST POP PUSH1 0x40 DUP3 ADD MLOAD DUP2 PUSH1 0x2 ADD SSTORE POP POP SWAP1 POP PUSH1 0x1 DUP2 SUB SWAP2 POP POP SWAP4 SWAP3 POP POP POP JUMP JUMPDEST PUSH1 0x0 DUP2 DUP2 SLOAD DUP2 LT PUSH2 0x186 JUMPI INVALID JUMPDEST SWAP1 PUSH1 0x0 MSTORE PUSH1 0x20 PUSH1 0x0 KECCAK256 SWAP1 PUSH1 0x3 MUL ADD PUSH1 0x0 SWAP2 POP SWAP1 POP DUP1 PUSH1 0x0 ADD DUP1 SLOAD PUSH1 0x1 DUP2 PUSH1 0x1 AND ISZERO PUSH2 0x100 MUL SUB AND PUSH1 0x2 SWAP1 DIV DUP1 PUSH1 0x1F ADD PUSH1 0x20 DUP1 SWAP2 DIV MUL PUSH1 0x20 ADD PUSH1 0x40 MLOAD SWAP1 DUP2 ADD PUSH1 0x40 MSTORE DUP1 SWAP3 SWAP2 SWAP1 DUP2 DUP2 MSTORE PUSH1 0x20 ADD DUP3 DUP1 SLOAD PUSH1 0x1 DUP2 PUSH1 0x1 AND ISZERO PUSH2 0x100 MUL SUB AND PUSH1 0x2 SWAP1 DIV DUP1 ISZERO PUSH2 0x232 JUMPI DUP1 PUSH1 0x1F LT PUSH2 0x207 JUMPI PUSH2 0x100 DUP1 DUP4 SLOAD DIV MUL DUP4 MSTORE SWAP2 PUSH1 0x20 ADD SWAP2 PUSH2 0x232 JUMP JUMPDEST DUP3 ADD SWAP2 SWAP1 PUSH1 0x0 MSTORE PUSH1 0x20 PUSH1 0x0 KECCAK256 SWAP1 JUMPDEST DUP2 SLOAD DUP2 MSTORE SWAP1 PUSH1 0x1 ADD SWAP1 PUSH1 0x20 ADD DUP1 DUP4 GT PUSH2 0x215 JUMPI DUP3 SWAP1 SUB PUSH1 0x1F AND DUP3 ADD SWAP2 JUMPDEST POP POP POP POP POP SWAP1 DUP1 PUSH1 0x1 ADD DUP1 SLOAD PUSH1 0x1 DUP2 PUSH1 0x1 AND ISZERO PUSH2 0x100 MUL SUB AND PUSH1 0x2 SWAP1 DIV DUP1 PUSH1 0x1F ADD PUSH1 0x20 DUP1 SWAP2 DIV MUL PUSH1 0x20 ADD PUSH1 0x40 MLOAD SWAP1 DUP2 ADD PUSH1 0x40 MSTORE DUP1 SWAP3 SWAP2 SWAP1 DUP2 DUP2 MSTORE PUSH1 0x20 ADD DUP3 DUP1 SLOAD PUSH1 0x1 DUP2 PUSH1 0x1 AND ISZERO PUSH2 0x100 MUL SUB AND PUSH1 0x2 SWAP1 DIV DUP1 ISZERO PUSH2 0x2D0 JUMPI DUP1 PUSH1 0x1F LT PUSH2 0x2A5 JUMPI PUSH2 0x100 DUP1 DUP4 SLOAD DIV MUL DUP4 MSTORE SWAP2 PUSH1 0x20 ADD SWAP2 PUSH2 0x2D0 JUMP JUMPDEST DUP3 ADD SWAP2 SWAP1 PUSH1 0x0 MSTORE PUSH1 0x20 PUSH1 0x0 KECCAK256 SWAP1 JUMPDEST DUP2 SLOAD DUP2 MSTORE SWAP1 PUSH1 0x1 ADD SWAP1 PUSH1 0x20 ADD DUP1 DUP4 GT PUSH2 0x2B3 JUMPI DUP3 SWAP1 SUB PUSH1 0x1F AND DUP3 ADD SWAP2 JUMPDEST POP POP POP POP POP SWAP1 DUP1 PUSH1 0x2 ADD SLOAD SWAP1 POP DUP4 JUMP JUMPDEST PUSH2 0x2E8 PUSH2 0x4E3 JUMP JUMPDEST PUSH1 0x0 DUP3 DUP2 SLOAD DUP2 LT PUSH2 0x2F5 JUMPI INVALID JUMPDEST SWAP1 PUSH1 0x0 MSTORE PUSH1 0x20 PUSH1 0x0 KECCAK256 SWAP1 PUSH1 0x3 MUL ADD PUSH1 0x40 MLOAD DUP1 PUSH1 0x60 ADD PUSH1 0x40 MSTORE SWAP1 DUP2 PUSH1 0x0 DUP3 ADD DUP1 SLOAD PUSH1 0x1 DUP2 PUSH1 0x1 AND ISZERO PUSH2 0x100 MUL SUB AND PUSH1 0x2 SWAP1 DIV DUP1 PUSH1 0x1F ADD PUSH1 0x20 DUP1 SWAP2 DIV MUL PUSH1 0x20 ADD PUSH1 0x40 MLOAD SWAP1 DUP2 ADD PUSH1 0x40 MSTORE DUP1 SWAP3 SWAP2 SWAP1 DUP2 DUP2 MSTORE PUSH1 0x20 ADD DUP3 DUP1 SLOAD PUSH1 0x1 DUP2 PUSH1 0x1 AND ISZERO PUSH2 0x100 MUL SUB AND PUSH1 0x2 SWAP1 DIV DUP1 ISZERO PUSH2 0x3A7 JUMPI DUP1 PUSH1 0x1F LT PUSH2 0x37C JUMPI PUSH2 0x100 DUP1 DUP4 SLOAD DIV MUL DUP4 MSTORE SWAP2 PUSH1 0x20 ADD SWAP2 PUSH2 0x3A7 JUMP JUMPDEST DUP3 ADD SWAP2 SWAP1 PUSH1 0x0 MSTORE PUSH1 0x20 PUSH1 0x0 KECCAK256 SWAP1 JUMPDEST DUP2 SLOAD DUP2 MSTORE SWAP1 PUSH1 0x1 ADD SWAP1 PUSH1 0x20 ADD DUP1 DUP4 GT PUSH2 0x38A JUMPI DUP3 SWAP1 SUB PUSH1 0x1F AND DUP3 ADD SWAP2 JUMPDEST POP POP POP POP POP DUP2 MSTORE PUSH1 0x20 ADD PUSH1 0x1 DUP3 ADD DUP1 SLOAD PUSH1 0x1 DUP2 PUSH1 0x1 AND ISZERO PUSH2 0x100 MUL SUB AND PUSH1 0x2 SWAP1 DIV DUP1 PUSH1 0x1F ADD PUSH1 0x20 DUP1 SWAP2 DIV MUL PUSH1 0x20 ADD PUSH1 0x40 MLOAD SWAP1 DUP2 ADD PUSH1 0x40 MSTORE DUP1 SWAP3 SWAP2 SWAP1 DUP2 DUP2 MSTORE PUSH1 0x20 ADD DUP3 DUP1 SLOAD PUSH1 0x1 DUP2 PUSH1 0x1 AND ISZERO PUSH2 0x100 MUL SUB AND PUSH1 0x2 SWAP1 DIV DUP1 ISZERO PUSH2 0x449 JUMPI DUP1 PUSH1 0x1F LT PUSH2 0x41E JUMPI PUSH2 0x100 DUP1 DUP4 SLOAD DIV MUL DUP4 MSTORE SWAP2 PUSH1 0x20 ADD SWAP2 PUSH2 0x449 JUMP JUMPDEST DUP3 ADD SWAP2 SWAP1 PUSH1 0x0 MSTORE PUSH1 0x20 PUSH1 0x0 KECCAK256 SWAP1 JUMPDEST DUP2 SLOAD DUP2 MSTORE SWAP1 PUSH1 0x1 ADD SWAP1 PUSH1 0x20 ADD DUP1 DUP4 GT PUSH2 0x42C JUMPI DUP3 SWAP1 SUB PUSH1 0x1F AND DUP3 ADD SWAP2 JUMPDEST POP POP POP POP POP DUP2 MSTORE PUSH1 0x20 ADD PUSH1 0x2 DUP3 ADD SLOAD DUP2 MSTORE POP POP SWAP1 POP SWAP2 SWAP1 POP JUMP JUMPDEST DUP3 DUP1 SLOAD PUSH1 0x1 DUP2 PUSH1 0x1 AND ISZERO PUSH2 0x100 MUL SUB AND PUSH1 0x2 SWAP1 DIV SWAP1 PUSH1 0x0 MSTORE PUSH1 0x20 PUSH1 0x0 KECCAK256 SWAP1 PUSH1 0x1F ADD PUSH1 0x20 SWAP1 DIV DUP2 ADD SWAP3 DUP3 PUSH1 0x1F LT PUSH2 0x4A4 JUMPI DUP1 MLOAD PUSH1 0xFF NOT AND DUP4 DUP1 ADD OR DUP6 SSTORE PUSH2 0x4D2 JUMP JUMPDEST DUP3 DUP1 ADD PUSH1 0x1 ADD DUP6 SSTORE DUP3 ISZERO PUSH2 0x4D2 JUMPI SWAP2 DUP3 ADD JUMPDEST DUP3 DUP2 GT ISZERO PUSH2 0x4D1 JUMPI DUP3 MLOAD DUP3 SSTORE SWAP2 PUSH1 0x20 ADD SWAP2 SWAP1 PUSH1 0x1 ADD SWAP1 PUSH2 0x4B6 JUMP JUMPDEST JUMPDEST POP SWAP1 POP PUSH2 0x4DF SWAP2 SWAP1 PUSH2 0x504 JUMP JUMPDEST POP SWAP1 JUMP JUMPDEST PUSH1 0x40 MLOAD DUP1 PUSH1 0x60 ADD PUSH1 0x40 MSTORE DUP1 PUSH1 0x60 DUP2 MSTORE PUSH1 0x20 ADD PUSH1 0x60 DUP2 MSTORE PUSH1 0x20 ADD PUSH1 0x0 DUP2 MSTORE POP SWAP1 JUMP JUMPDEST PUSH2 0x526 SWAP2 SWAP1 JUMPDEST DUP1 DUP3 GT ISZERO PUSH2 0x522 JUMPI PUSH1 0x0 DUP2 PUSH1 0x0 SWAP1 SSTORE POP PUSH1 0x1 ADD PUSH2 0x50A JUMP JUMPDEST POP SWAP1 JUMP JUMPDEST SWAP1 JUMP JUMPDEST PUSH1 0x0 DUP3 PUSH1 0x1F DUP4 ADD SLT PUSH2 0x53A JUMPI PUSH1 0x0 DUP1 REVERT JUMPDEST DUP2 CALLDATALOAD PUSH2 0x54D PUSH2 0x548 DUP3 PUSH2 0x7D0 JUMP JUMPDEST PUSH2 0x7A3 JUMP JUMPDEST SWAP2 POP DUP1 DUP3 MSTORE PUSH1 0x20 DUP4 ADD PUSH1 0x20 DUP4 ADD DUP6 DUP4 DUP4 ADD GT ISZERO PUSH2 0x569 JUMPI PUSH1 0x0 DUP1 REVERT JUMPDEST PUSH2 0x574 DUP4 DUP3 DUP5 PUSH2 0x833 JUMP JUMPDEST POP POP POP SWAP3 SWAP2 POP POP JUMP JUMPDEST PUSH1 0x0 DUP2 CALLDATALOAD SWAP1 POP PUSH2 0x58C DUP2 PUSH2 0x886 JUMP JUMPDEST SWAP3 SWAP2 POP POP JUMP JUMPDEST PUSH1 0x0 DUP1 PUSH1 0x0 PUSH1 0x60 DUP5 DUP7 SUB SLT ISZERO PUSH2 0x5A7 JUMPI PUSH1 0x0 DUP1 REVERT JUMPDEST PUSH1 0x0 DUP5 ADD CALLDATALOAD PUSH8 0xFFFFFFFFFFFFFFFF DUP2 GT ISZERO PUSH2 0x5C1 JUMPI PUSH1 0x0 DUP1 REVERT JUMPDEST PUSH2 0x5CD DUP7 DUP3 DUP8 ADD PUSH2 0x529 JUMP JUMPDEST SWAP4 POP POP PUSH1 0x20 DUP5 ADD CALLDATALOAD PUSH8 0xFFFFFFFFFFFFFFFF DUP2 GT ISZERO PUSH2 0x5EA JUMPI PUSH1 0x0 DUP1 REVERT JUMPDEST PUSH2 0x5F6 DUP7 DUP3 DUP8 ADD PUSH2 0x529 JUMP JUMPDEST SWAP3 POP POP PUSH1 0x40 PUSH2 0x607 DUP7 DUP3 DUP8 ADD PUSH2 0x57D JUMP JUMPDEST SWAP2 POP POP SWAP3 POP SWAP3 POP SWAP3 JUMP JUMPDEST PUSH1 0x0 PUSH1 0x20 DUP3 DUP5 SUB SLT ISZERO PUSH2 0x623 JUMPI PUSH1 0x0 DUP1 REVERT JUMPDEST PUSH1 0x0 PUSH2 0x631 DUP5 DUP3 DUP6 ADD PUSH2 0x57D JUMP JUMPDEST SWAP2 POP POP SWAP3 SWAP2 POP POP JUMP JUMPDEST PUSH1 0x0 PUSH2 0x645 DUP3 PUSH2 0x7FC JUMP JUMPDEST PUSH2 0x64F DUP2 DUP6 PUSH2 0x807 JUMP JUMPDEST SWAP4 POP PUSH2 0x65F DUP2 DUP6 PUSH1 0x20 DUP7 ADD PUSH2 0x842 JUMP JUMPDEST PUSH2 0x668 DUP2 PUSH2 0x875 JUMP JUMPDEST DUP5 ADD SWAP2 POP POP SWAP3 SWAP2 POP POP JUMP JUMPDEST PUSH1 0x0 PUSH2 0x67E DUP3 PUSH2 0x7FC JUMP JUMPDEST PUSH2 0x688 DUP2 DUP6 PUSH2 0x818 JUMP JUMPDEST SWAP4 POP PUSH2 0x698 DUP2 DUP6 PUSH1 0x20 DUP7 ADD PUSH2 0x842 JUMP JUMPDEST PUSH2 0x6A1 DUP2 PUSH2 0x875 JUMP JUMPDEST DUP5 ADD SWAP2 POP POP SWAP3 SWAP2 POP POP JUMP JUMPDEST PUSH1 0x0 PUSH1 0x60 DUP4 ADD PUSH1 0x0 DUP4 ADD MLOAD DUP5 DUP3 SUB PUSH1 0x0 DUP7 ADD MSTORE PUSH2 0x6C9 DUP3 DUP3 PUSH2 0x63A JUMP JUMPDEST SWAP2 POP POP PUSH1 0x20 DUP4 ADD MLOAD DUP5 DUP3 SUB PUSH1 0x20 DUP7 ADD MSTORE PUSH2 0x6E3 DUP3 DUP3 PUSH2 0x63A JUMP JUMPDEST SWAP2 POP POP PUSH1 0x40 DUP4 ADD MLOAD PUSH2 0x6F8 PUSH1 0x40 DUP7 ADD DUP3 PUSH2 0x703 JUMP JUMPDEST POP DUP1 SWAP2 POP POP SWAP3 SWAP2 POP POP JUMP JUMPDEST PUSH2 0x70C DUP2 PUSH2 0x829 JUMP JUMPDEST DUP3 MSTORE POP POP JUMP JUMPDEST PUSH2 0x71B DUP2 PUSH2 0x829 JUMP JUMPDEST DUP3 MSTORE POP POP JUMP JUMPDEST PUSH1 0x0 PUSH1 0x60 DUP3 ADD SWAP1 POP DUP2 DUP2 SUB PUSH1 0x0 DUP4 ADD MSTORE PUSH2 0x73B DUP2 DUP7 PUSH2 0x673 JUMP JUMPDEST SWAP1 POP DUP2 DUP2 SUB PUSH1 0x20 DUP4 ADD MSTORE PUSH2 0x74F DUP2 DUP6 PUSH2 0x673 JUMP JUMPDEST SWAP1 POP PUSH2 0x75E PUSH1 0x40 DUP4 ADD DUP5 PUSH2 0x712 JUMP JUMPDEST SWAP5 SWAP4 POP POP POP POP JUMP JUMPDEST PUSH1 0x0 PUSH1 0x20 DUP3 ADD SWAP1 POP DUP2 DUP2 SUB PUSH1 0x0 DUP4 ADD MSTORE PUSH2 0x780 DUP2 DUP5 PUSH2 0x6AC JUMP JUMPDEST SWAP1 POP SWAP3 SWAP2 POP POP JUMP JUMPDEST PUSH1 0x0 PUSH1 0x20 DUP3 ADD SWAP1 POP PUSH2 0x79D PUSH1 0x0 DUP4 ADD DUP5 PUSH2 0x712 JUMP JUMPDEST SWAP3 SWAP2 POP POP JUMP JUMPDEST PUSH1 0x0 PUSH1 0x40 MLOAD SWAP1 POP DUP2 DUP2 ADD DUP2 DUP2 LT PUSH8 0xFFFFFFFFFFFFFFFF DUP3 GT OR ISZERO PUSH2 0x7C6 JUMPI PUSH1 0x0 DUP1 REVERT JUMPDEST DUP1 PUSH1 0x40 MSTORE POP SWAP2 SWAP1 POP JUMP JUMPDEST PUSH1 0x0 PUSH8 0xFFFFFFFFFFFFFFFF DUP3 GT ISZERO PUSH2 0x7E7 JUMPI PUSH1 0x0 DUP1 REVERT JUMPDEST PUSH1 0x1F NOT PUSH1 0x1F DUP4 ADD AND SWAP1 POP PUSH1 0x20 DUP2 ADD SWAP1 POP SWAP2 SWAP1 POP JUMP JUMPDEST PUSH1 0x0 DUP2 MLOAD SWAP1 POP SWAP2 SWAP1 POP JUMP JUMPDEST PUSH1 0x0 DUP3 DUP3 MSTORE PUSH1 0x20 DUP3 ADD SWAP1 POP SWAP3 SWAP2 POP POP JUMP JUMPDEST PUSH1 0x0 DUP3 DUP3 MSTORE PUSH1 0x20 DUP3 ADD SWAP1 POP SWAP3 SWAP2 POP POP JUMP JUMPDEST PUSH1 0x0 DUP2 SWAP1 POP SWAP2 SWAP1 POP JUMP JUMPDEST DUP3 DUP2 DUP4 CALLDATACOPY PUSH1 0x0 DUP4 DUP4 ADD MSTORE POP POP POP JUMP JUMPDEST PUSH1 0x0 JUMPDEST DUP4 DUP2 LT ISZERO PUSH2 0x860 JUMPI DUP1 DUP3 ADD MLOAD DUP2 DUP5 ADD MSTORE PUSH1 0x20 DUP2 ADD SWAP1 POP PUSH2 0x845 JUMP JUMPDEST DUP4 DUP2 GT ISZERO PUSH2 0x86F JUMPI PUSH1 0x0 DUP5 DUP5 ADD MSTORE JUMPDEST POP POP POP POP JUMP JUMPDEST PUSH1 0x0 PUSH1 0x1F NOT PUSH1 0x1F DUP4 ADD AND SWAP1 POP SWAP2 SWAP1 POP JUMP JUMPDEST PUSH2 0x88F DUP2 PUSH2 0x829 JUMP JUMPDEST DUP2 EQ PUSH2 0x89A JUMPI PUSH1 0x0 DUP1 REVERT JUMPDEST POP JUMP INVALID LOG3 PUSH6 0x627A7A723158 KECCAK256 0xB8 0xCB PUSH3 0x122DD3 0xEB PUSH2 0x7484 PUSH4 0x9C552E7C PUSH10 0x57B844D798FC6DDC1750 0xFB 0xCB REVERT 0xC6 0x48 PUSH27 0x6C6578706572696D656E74616CF564736F6C634300051100400000 "
				},
				"gasEstimates": {
					"creation": {
						"codeDepositCost": "454400",
						"executionCost": "486",
						"totalCost": "454886"
					},
					"external": {
						"addBook(string,string,uint256)": "infinite",
						"getBook(uint256)": "infinite",
						"list(uint256)": "infinite"
					}
				},
				"methodIdentifiers": {
					"addBook(string,string,uint256)": "04266224",
					"getBook(uint256)": "e0ff5b8b",
					"list(uint256)": "80c9419e"
				}
			},
			"storageLayout": {
				"storage": [
					{
						"astId": 11,
						"contract": "contracts/kopo/0823/struct2.sol:StructExam",
						"label": "list",
						"offset": 0,
						"slot": "0",
						"type": "t_array(t_struct(Book)8_storage)dyn_storage"
					}
				],
				"types": {
					"t_array(t_struct(Book)8_storage)dyn_storage": {
						"base": "t_struct(Book)8_storage",
						"encoding": "dynamic_array",
						"label": "struct StructExam.Book[]",
						"numberOfBytes": "32"
					},
					"t_string_storage": {
						"encoding": "bytes",
						"label": "string",
						"numberOfBytes": "32"
					},
					"t_struct(Book)8_storage": {
						"encoding": "inplace",
						"label": "struct StructExam.Book",
						"members": [
							{
								"astId": 3,
								"contract": "contracts/kopo/0823/struct2.sol:StructExam",
								"label": "title",
								"offset": 0,
								"slot": "0",
								"type": "t_string_storage"
							},
							{
								"astId": 5,
								"contract": "contracts/kopo/0823/struct2.sol:StructExam",
								"label": "author",
								"offset": 0,
								"slot": "1",
								"type": "t_string_storage"
							},
							{
								"astId": 7,
								"contract": "contracts/kopo/0823/struct2.sol:StructExam",
								"label": "book_id",
								"offset": 0,
								"slot": "2",
								"type": "t_uint256"
							}
						],
						"numberOfBytes": "96"
					},
					"t_uint256": {
						"encoding": "inplace",
						"label": "uint256",
						"numberOfBytes": "32"
					}
				}
			},
			"userdoc": {
				"methods": {}
			}
		}
	}
}